{
  "contractName": "SimpleStoreV2",
  "abi": [
    {
      "anonymous": false,
      "inputs": [
        {
          "indexed": false,
          "name": "_sender",
          "type": "address"
        },
        {
          "indexed": true,
          "name": "_text",
          "type": "string"
        },
        {
          "indexed": false,
          "name": "msgType",
          "type": "string"
        },
        {
          "indexed": true,
          "name": "_time",
          "type": "uint256"
        }
      ],
      "name": "Recorded",
      "type": "event"
    },
    {
      "constant": true,
      "inputs": [],
      "name": "getList",
      "outputs": [
        {
          "name": "",
          "type": "uint256[]"
        }
      ],
      "payable": false,
      "stateMutability": "view",
      "type": "function"
    },
    {
      "constant": false,
      "inputs": [
        {
          "name": "text",
          "type": "string"
        },
        {
          "name": "time",
          "type": "uint256"
        },
        {
          "name": "msgType",
          "type": "string"
        }
      ],
      "name": "add",
      "outputs": [],
      "payable": false,
      "stateMutability": "nonpayable",
      "type": "function"
    },
    {
      "constant": true,
      "inputs": [
        {
          "name": "time",
          "type": "uint256"
        }
      ],
      "name": "get",
      "outputs": [
        {
          "name": "msgType",
          "type": "string"
        },
        {
          "name": "msgContent",
          "type": "string"
        },
        {
          "name": "msgTime",
          "type": "uint256"
        }
      ],
      "payable": false,
      "stateMutability": "view",
      "type": "function"
    }
  ],
  "bytecode": "0x608060405234801561001057600080fd5b50610a67806100206000396000f3fe608060405260043610610057576000357c0100000000000000000000000000000000000000000000000000000000900463ffffffff1680634f15e5471461005c578063942b765a146101c55780639507d39a14610231575b600080fd5b34801561006857600080fd5b506101c36004803603606081101561007f57600080fd5b810190808035906020019064010000000081111561009c57600080fd5b8201836020820111156100ae57600080fd5b803590602001918460018302840111640100000000831117156100d057600080fd5b91908080601f016020809104026020016040519081016040528093929190818152602001838380828437600081840152601f19601f820116905080830192505050505050509192919290803590602001909291908035906020019064010000000081111561013d57600080fd5b82018360208201111561014f57600080fd5b8035906020019184600183028401116401000000008311171561017157600080fd5b91908080601f016020809104026020016040519081016040528093929190818152602001838380828437600081840152601f19601f820116905080830192505050505050509192919290505050610358565b005b3480156101d157600080fd5b506101da610697565b6040518080602001828103825283818151815260200191508051906020019060200280838360005b8381101561021d578082015181840152602081019050610202565b505050509050019250505060405180910390f35b34801561023d57600080fd5b5061026a6004803603602081101561025457600080fd5b810190808035906020019092919050505061072c565b604051808060200180602001848152602001838103835286818151815260200191508051906020019080838360005b838110156102b4578082015181840152602081019050610299565b50505050905090810190601f1680156102e15780820380516001836020036101000a031916815260200191505b50838103825285818151815260200191508051906020019080838360005b8381101561031a5780820151818401526020810190506102ff565b50505050905090810190601f1680156103475780820380516001836020036101000a031916815260200191505b509550505050505060405180910390f35b610360610974565b60405180807f696d61676500000000000000000000000000000000000000000000000000000081525060050190506040518091039020826040516020018082805190602001908083835b6020831015156103cf57805182526020820191506020810190506020830392506103aa565b6001836020036101000a038019825116818451168082178552505050505050905001915050604051602081830303815290604052805190602001201415610468576060604051908101604052806040805190810160405280600581526020017f696d61676500000000000000000000000000000000000000000000000000000081525081526020018581526020018481525090506104bc565b6060604051908101604052806040805190810160405280600481526020017f746578740000000000000000000000000000000000000000000000000000000081525081526020018581526020018481525090505b806000803373ffffffffffffffffffffffffffffffffffffffff1673ffffffffffffffffffffffffffffffffffffffff16815260200190815260200160002060008581526020019081526020016000206000820151816000019080519060200190610528929190610996565b506020820151816001019080519060200190610545929190610996565b506040820151816002015590505061055d3384610907565b82846040518082805190602001908083835b602083101515610594578051825260208201915060208101905060208303925061056f565b6001836020036101000a03801982511681845116808217855250505050505090500191505060405180910390207f63a95f37ae694b146985ad588c65f6d7890db0f825764333861b96acc5e78b703385604051808373ffffffffffffffffffffffffffffffffffffffff1673ffffffffffffffffffffffffffffffffffffffff16815260200180602001828103825283818151815260200191508051906020019080838360005b8381101561065657808201518184015260208101905061063b565b50505050905090810190601f1680156106835780820380516001836020036101000a031916815260200191505b50935050505060405180910390a350505050565b6060600160003373ffffffffffffffffffffffffffffffffffffffff1673ffffffffffffffffffffffffffffffffffffffff16815260200190815260200160002080548060200260200160405190810160405280929190818152602001828054801561072257602002820191906000526020600020905b81548152602001906001019080831161070e575b5050505050905090565b6060806000610739610974565b6000803373ffffffffffffffffffffffffffffffffffffffff1673ffffffffffffffffffffffffffffffffffffffff168152602001908152602001600020600086815260200190815260200160002060606040519081016040529081600082018054600181600116156101000203166002900480601f01602080910402602001604051908101604052809291908181526020018280546001816001161561010002031660029004801561082d5780601f106108025761010080835404028352916020019161082d565b820191906000526020600020905b81548152906001019060200180831161081057829003601f168201915b50505050508152602001600182018054600181600116156101000203166002900480601f0160208091040260200160405190810160405280929190818152602001828054600181600116156101000203166002900480156108cf5780601f106108a4576101008083540402835291602001916108cf565b820191906000526020600020905b8154815290600101906020018083116108b257829003601f168201915b505050505081526020016002820154815250509050806000015181602001518260400151829250819150935093509350509193909250565b600160008373ffffffffffffffffffffffffffffffffffffffff1673ffffffffffffffffffffffffffffffffffffffff1681526020019081526020016000208190806001815401808255809150509060018203906000526020600020016000909192909190915055505050565b6060604051908101604052806060815260200160608152602001600081525090565b828054600181600116156101000203166002900490600052602060002090601f016020900481019282601f106109d757805160ff1916838001178555610a05565b82800160010185558215610a05579182015b82811115610a045782518255916020019190600101906109e9565b5b509050610a129190610a16565b5090565b610a3891905b80821115610a34576000816000905550600101610a1c565b5090565b9056fea165627a7a723058201558b9b1b1399643890922c70c64c612eac069ec6575064ee985336f8f0c970b0029",
  "source": "pragma solidity 0.5.0;\n\n\ncontract SimpleStoreV2 {\n    mapping (address => mapping (uint256 => Message)) private records;\n    mapping (address => uint256[]) private categories;\n\n    struct Message {\n        string msgType;\n        string msgContent;\n        uint256 time;\n    }\n\n    event Recorded(address _sender, string indexed _text, string msgType, uint256 indexed _time);\n\n    function _addToList(address from, uint256 time) private {\n        categories[from].push(time);\n    }\n\n    function getList()\n    public\n    view\n    returns (uint256[] memory)\n    {\n        return categories[msg.sender];\n    }\n\n    function add(string memory text, uint256 time, string memory msgType) public {\n        Message memory message;\n\n        if(keccak256(abi.encodePacked(msgType)) == keccak256(\"image\")) {\n            message = Message(\"image\", text, time);\n        } else {\n            message = Message(\"text\", text, time);\n        }\n\n        records[msg.sender][time]=message;\n        _addToList(msg.sender, time);\n        emit Recorded(msg.sender, text, msgType, time);\n    }\n\n    function get(uint256 time) public view returns(string memory msgType, string memory msgContent, uint256 msgTime) {\n        Message memory message = records[msg.sender][time];\n        return (message.msgType, message.msgContent, message.time);\n    }\n}\n",
  "sourcePath": "/Users/qzy/Developer/cita/first-forever-demo/src/contracts/SimpleStoreV2.sol",
  "compiler": {
    "name": "solc",
    "version": "0.5.0+commit.1d4f565a.Emscripten.clang"
  },
  "schemaVersion": "3.0.23",
  "updatedAt": "2020-03-16T07:07:39.873Z",
  "devdoc": {
    "methods": {}
  },
  "userdoc": {
    "methods": {}
  }
}