{
  "contractName": "SimpleStoreV2",
  "abi": [
    {
      "inputs": [],
      "payable": false,
      "stateMutability": "nonpayable",
      "type": "constructor"
    },
    {
      "anonymous": false,
      "inputs": [
        {
          "indexed": false,
          "name": "_sender",
          "type": "address"
        },
        {
          "indexed": true,
          "name": "_text",
          "type": "string"
        },
        {
          "indexed": false,
          "name": "msgType",
          "type": "string"
        },
        {
          "indexed": true,
          "name": "_time",
          "type": "uint256"
        }
      ],
      "name": "Recorded",
      "type": "event"
    },
    {
      "constant": false,
      "inputs": [
        {
          "name": "",
          "type": "address"
        }
      ],
      "name": "migration",
      "outputs": [],
      "payable": false,
      "stateMutability": "nonpayable",
      "type": "function"
    },
    {
      "constant": true,
      "inputs": [],
      "name": "getList",
      "outputs": [
        {
          "name": "",
          "type": "uint256[]"
        }
      ],
      "payable": false,
      "stateMutability": "view",
      "type": "function"
    },
    {
      "constant": false,
      "inputs": [
        {
          "name": "text",
          "type": "string"
        },
        {
          "name": "time",
          "type": "uint256"
        },
        {
          "name": "msgType",
          "type": "string"
        }
      ],
      "name": "add",
      "outputs": [],
      "payable": false,
      "stateMutability": "nonpayable",
      "type": "function"
    },
    {
      "constant": true,
      "inputs": [
        {
          "name": "time",
          "type": "uint256"
        }
      ],
      "name": "get",
      "outputs": [
        {
          "name": "msgContent",
          "type": "string"
        },
        {
          "name": "msgType",
          "type": "string"
        },
        {
          "name": "msgTime",
          "type": "uint256"
        }
      ],
      "payable": false,
      "stateMutability": "view",
      "type": "function"
    }
  ],
  "bytecode": "0x608060405234801561001057600080fd5b50336000806101000a81548173ffffffffffffffffffffffffffffffffffffffff021916908373ffffffffffffffffffffffffffffffffffffffff160217905550610aba806100606000396000f300608060405260043610610062576000357c0100000000000000000000000000000000000000000000000000000000900463ffffffff1680634f15e54714610067578063685e248614610120578063942b765a146101635780639507d39a146101cf575b600080fd5b34801561007357600080fd5b5061011e600480360381019080803590602001908201803590602001908080601f016020809104026020016040519081016040528093929190818152602001838380828437820191505050505050919291929080359060200190929190803590602001908201803590602001908080601f01602080910402602001604051908101604052809392919081815260200183838082843782019150505050505091929192905050506102e8565b005b34801561012c57600080fd5b50610161600480360381019080803573ffffffffffffffffffffffffffffffffffffffff16906020019092919050505061068b565b005b34801561016f57600080fd5b506101786106e9565b6040518080602001828103825283818151815260200191508051906020019060200280838360005b838110156101bb5780820151818401526020810190506101a0565b505050509050019250505060405180910390f35b3480156101db57600080fd5b506101fa6004803603810190808035906020019092919050505061077e565b604051808060200180602001848152602001838103835286818151815260200191508051906020019080838360005b83811015610244578082015181840152602081019050610229565b50505050905090810190601f1680156102715780820380516001836020036101000a031916815260200191505b50838103825285818151815260200191508051906020019080838360005b838110156102aa57808201518184015260208101905061028f565b50505050905090810190601f1680156102d75780820380516001836020036101000a031916815260200191505b509550505050505060405180910390f35b6102f06109c7565b60405180807f696d6167650000000000000000000000000000000000000000000000000000008152506005019050604051809103902060001916826040516020018082805190602001908083835b602083101515610363578051825260208201915060208101905060208303925061033e565b6001836020036101000a0380198251168184511680821785525050505050509050019150506040516020818303038152906040526040518082805190602001908083835b6020831015156103cc57805182526020820191506020810190506020830392506103a7565b6001836020036101000a038019825116818451168082178552505050505050905001915050604051809103902060001916141561045b576060604051908101604052806040805190810160405280600581526020017f696d61676500000000000000000000000000000000000000000000000000000081525081526020018581526020018481525090506104af565b6060604051908101604052806040805190810160405280600481526020017f746578740000000000000000000000000000000000000000000000000000000081525081526020018581526020018481525090505b80600160003373ffffffffffffffffffffffffffffffffffffffff1673ffffffffffffffffffffffffffffffffffffffff1681526020019081526020016000206000858152602001908152602001600020600082015181600001908051906020019061051c9291906109e9565b5060208201518160010190805190602001906105399291906109e9565b5060408201518160020155905050610551338461095a565b82846040518082805190602001908083835b6020831015156105885780518252602082019150602081019050602083039250610563565b6001836020036101000a03801982511681845116808217855250505050505090500191505060405180910390207f63a95f37ae694b146985ad588c65f6d7890db0f825764333861b96acc5e78b703385604051808373ffffffffffffffffffffffffffffffffffffffff1673ffffffffffffffffffffffffffffffffffffffff16815260200180602001828103825283818151815260200191508051906020019080838360005b8381101561064a57808201518184015260208101905061062f565b50505050905090810190601f1680156106775780820380516001836020036101000a031916815260200191505b50935050505060405180910390a350505050565b6000809054906101000a900473ffffffffffffffffffffffffffffffffffffffff1673ffffffffffffffffffffffffffffffffffffffff163373ffffffffffffffffffffffffffffffffffffffff161415156106e657600080fd5b50565b6060600260003373ffffffffffffffffffffffffffffffffffffffff1673ffffffffffffffffffffffffffffffffffffffff16815260200190815260200160002080548060200260200160405190810160405280929190818152602001828054801561077457602002820191906000526020600020905b815481526020019060010190808311610760575b5050505050905090565b606080600061078b6109c7565b600160003373ffffffffffffffffffffffffffffffffffffffff1673ffffffffffffffffffffffffffffffffffffffff168152602001908152602001600020600086815260200190815260200160002060606040519081016040529081600082018054600181600116156101000203166002900480601f0160208091040260200160405190810160405280929190818152602001828054600181600116156101000203166002900480156108805780601f1061085557610100808354040283529160200191610880565b820191906000526020600020905b81548152906001019060200180831161086357829003601f168201915b50505050508152602001600182018054600181600116156101000203166002900480601f0160208091040260200160405190810160405280929190818152602001828054600181600116156101000203166002900480156109225780601f106108f757610100808354040283529160200191610922565b820191906000526020600020905b81548152906001019060200180831161090557829003601f168201915b505050505081526020016002820154815250509050806020015181600001518260400151829250819150935093509350509193909250565b600260008373ffffffffffffffffffffffffffffffffffffffff1673ffffffffffffffffffffffffffffffffffffffff1681526020019081526020016000208190806001815401808255809150509060018203906000526020600020016000909192909190915055505050565b6060604051908101604052806060815260200160608152602001600081525090565b828054600181600116156101000203166002900490600052602060002090601f016020900481019282601f10610a2a57805160ff1916838001178555610a58565b82800160010185558215610a58579182015b82811115610a57578251825591602001919060010190610a3c565b5b509050610a659190610a69565b5090565b610a8b91905b80821115610a87576000816000905550600101610a6f565b5090565b905600a165627a7a72305820337bb0d8ad6bcf87d75b9a210297d07216347e2cdfc3459d847babac3800b7db0029",
  "source": "pragma solidity 0.4.24;\n\ncontract SimpleStoreV2 {\n    address owner;\n    mapping (address => mapping (uint256 => Message)) private records;\n    mapping (address => uint256[]) private categories;\n    struct Message {\n        string msgType;\n        string msgContent;\n        uint256 msgTime;\n    }\n\n    event Recorded(address _sender, string indexed _text, string msgType, uint256 indexed _time);\n\n    constructor() public {\n        owner = msg.sender;\n    }\n\n    function migration(address) {\n        require(msg.sender == owner);\n    }\n\n    function _addToList(address from, uint256 time) private {\n        categories[from].push(time);\n    }\n\n    function getList()\n    public\n    view\n    returns (uint256[] memory)\n    {\n        return categories[msg.sender];\n    }\n\n    function add(string memory text, uint256 time, string memory msgType) public {\n        Message memory message;\n\n        if(keccak256(abi.encodePacked(msgType)) == keccak256(\"image\")) {\n            message = Message(\"image\", text, time);\n        } else {\n            message = Message(\"text\", text, time);\n        }\n\n        records[msg.sender][time]=message;\n        _addToList(msg.sender, time);\n        emit Recorded(msg.sender, text, msgType, time);\n    }\n\n    function get(uint256 time) public view returns(string memory msgContent, string memory msgType,uint256 msgTime) {\n        Message memory message = records[msg.sender][time];\n//        if(bytes(message.msgType).length == 0) {\n//            message =  Message({msgType: 'text', msgContent: , msgTime: time});\n//\n//        }\n        return (message.msgContent, message.msgType, message.msgTime);\n    }\n}\n",
  "sourcePath": "/Users/qzy/Developer/cita/first-forever-demo/src/contracts/SimpleStoreV2.sol",
  "compiler": {
    "name": "solc",
    "version": "0.4.24+commit.e67f0147.Emscripten.clang"
  },
  "schemaVersion": "3.0.23",
  "updatedAt": "2020-03-17T05:46:56.517Z",
  "devdoc": {
    "methods": {}
  },
  "userdoc": {
    "methods": {}
  }
}