{
  "contractName": "UpgradableManager",
  "abi": [
    {
      "inputs": [],
      "payable": false,
      "stateMutability": "nonpayable",
      "type": "constructor"
    },
    {
      "payable": true,
      "stateMutability": "payable",
      "type": "fallback"
    },
    {
      "anonymous": false,
      "inputs": [
        {
          "indexed": true,
          "name": "implementation",
          "type": "address"
        }
      ],
      "name": "Upgraded",
      "type": "event"
    },
    {
      "constant": true,
      "inputs": [],
      "name": "implementation",
      "outputs": [
        {
          "name": "",
          "type": "address"
        }
      ],
      "payable": false,
      "stateMutability": "view",
      "type": "function"
    },
    {
      "constant": false,
      "inputs": [
        {
          "name": "impl",
          "type": "address"
        }
      ],
      "name": "upgradeTo",
      "outputs": [],
      "payable": false,
      "stateMutability": "nonpayable",
      "type": "function"
    }
  ],
  "bytecode": "0x608060405234801561001057600080fd5b5033600160006101000a81548173ffffffffffffffffffffffffffffffffffffffff021916908373ffffffffffffffffffffffffffffffffffffffff1602179055506103cd806100616000396000f30060806040526004361061004c576000357c0100000000000000000000000000000000000000000000000000000000900463ffffffff1680633659cfe6146100f25780635c60da1b14610135575b6000606061005861018c565b9150600073ffffffffffffffffffffffffffffffffffffffff168273ffffffffffffffffffffffffffffffffffffffff161415151561009657600080fd5b6000368080601f0160208091040260200160405190810160405280939291908181526020018383808284378201915050505050509050600080825160208401855af43d604051816000823e82600081146100ee578282f35b8282fd5b3480156100fe57600080fd5b50610133600480360381019080803573ffffffffffffffffffffffffffffffffffffffff1690602001909291905050506101b5565b005b34801561014157600080fd5b5061014a61018c565b604051808273ffffffffffffffffffffffffffffffffffffffff1673ffffffffffffffffffffffffffffffffffffffff16815260200191505060405180910390f35b60008060009054906101000a900473ffffffffffffffffffffffffffffffffffffffff16905090565b600160009054906101000a900473ffffffffffffffffffffffffffffffffffffffff1673ffffffffffffffffffffffffffffffffffffffff163373ffffffffffffffffffffffffffffffffffffffff1614151561021157600080fd5b8073ffffffffffffffffffffffffffffffffffffffff166000809054906101000a900473ffffffffffffffffffffffffffffffffffffffff1673ffffffffffffffffffffffffffffffffffffffff161415151561026d57600080fd5b8073ffffffffffffffffffffffffffffffffffffffff1660405180807f6d69677261746500000000000000000000000000000000000000000000000000815250600701905060405180910390207c010000000000000000000000000000000000000000000000000000000090046040518163ffffffff167c01000000000000000000000000000000000000000000000000000000000281526004016000604051808303816000875af19250505050806000806101000a81548173ffffffffffffffffffffffffffffffffffffffff021916908373ffffffffffffffffffffffffffffffffffffffff1602179055508073ffffffffffffffffffffffffffffffffffffffff167fbc7cd75a20ee27fd9adebab32041f755214dbc6bffa90cc0225b39da2e5c2d3b60405160405180910390a2505600a165627a7a723058201ce9ac54551f9d5d5c809be5144bd6c2458b0ddc443da56d04a18d5784fb0eb40029",
  "source": "pragma solidity 0.4.24;\n\ncontract UpgradableManager {\n    address _implementation;\n    address owner;\n    event Upgraded(address indexed implementation);\n\n    constructor() public {\n        owner = msg.sender;\n    }\n\n    modifier onlyOwner(){\n        require(msg.sender == owner);\n        _;\n    }\n\n    function implementation() public view returns (address) {\n        return _implementation;\n    }\n\n    function upgradeTo(address impl) public onlyOwner {\n        require(_implementation != impl);\n        // call migrate\n        impl.call(bytes4(keccak256(\"migrate\")));\n        _implementation = impl;\n        emit Upgraded(impl);\n    }\n    // fallback function\n    function() payable external {\n        address _impl = implementation();\n        require(_impl != address(0));\n        // copy incoming call data\n        // official new version is 'calldatacopy(ptr, 0, calldatasize)'\n\n        bytes memory data = msg.data;\n\n        assembly {\n        // forward call to logic contract\n            let result := delegatecall(gas, _impl, add(data, 0x20), mload(data), 0, 0)\n            let size := returndatasize\n        // 获取0x40位置往下32个字节存储的数据\n            let ptr := mload(0x40)\n        // retrieve return data\n            returndatacopy(ptr, 0, size)\n        // forward return data back to caller\n            switch result\n            case 0 { revert(ptr, size) }\n            default { return(ptr, size) }\n        }\n    }\n}\n",
  "sourcePath": "/Users/qzy/Developer/cita/first-forever-demo/src/contracts/UpgradableManager.sol",
  "compiler": {
    "name": "solc",
    "version": "0.4.24+commit.e67f0147.Emscripten.clang"
  },
  "schemaVersion": "3.0.23",
  "updatedAt": "2020-03-17T05:46:56.518Z",
  "devdoc": {
    "methods": {}
  },
  "userdoc": {
    "methods": {}
  }
}